{
  "_format": "hh-sol-artifact-1",
  "contractName": "Escrow",
  "sourceName": "contracts/Factory.sol",
  "abi": [
    {
      "constant": true,
      "inputs": [],
      "name": "milestoneCount",
      "outputs": [
        {
          "name": "",
          "type": "uint256"
        }
      ],
      "payable": false,
      "stateMutability": "view",
      "type": "function"
    },
    {
      "constant": true,
      "inputs": [],
      "name": "totalAmount",
      "outputs": [
        {
          "name": "",
          "type": "uint256"
        }
      ],
      "payable": false,
      "stateMutability": "view",
      "type": "function"
    },
    {
      "constant": true,
      "inputs": [],
      "name": "getContractBalance",
      "outputs": [
        {
          "name": "",
          "type": "uint256"
        }
      ],
      "payable": false,
      "stateMutability": "view",
      "type": "function"
    },
    {
      "constant": true,
      "inputs": [],
      "name": "milestoneAmount",
      "outputs": [
        {
          "name": "",
          "type": "uint256"
        }
      ],
      "payable": false,
      "stateMutability": "view",
      "type": "function"
    },
    {
      "constant": false,
      "inputs": [],
      "name": "releaseMilestone",
      "outputs": [],
      "payable": false,
      "stateMutability": "nonpayable",
      "type": "function"
    },
    {
      "constant": false,
      "inputs": [],
      "name": "confirmCompletion",
      "outputs": [],
      "payable": false,
      "stateMutability": "nonpayable",
      "type": "function"
    },
    {
      "constant": true,
      "inputs": [],
      "name": "employee",
      "outputs": [
        {
          "name": "",
          "type": "address"
        }
      ],
      "payable": false,
      "stateMutability": "view",
      "type": "function"
    },
    {
      "constant": false,
      "inputs": [],
      "name": "fundEscrow",
      "outputs": [],
      "payable": true,
      "stateMutability": "payable",
      "type": "function"
    },
    {
      "constant": true,
      "inputs": [],
      "name": "employer",
      "outputs": [
        {
          "name": "",
          "type": "address"
        }
      ],
      "payable": false,
      "stateMutability": "view",
      "type": "function"
    },
    {
      "constant": true,
      "inputs": [],
      "name": "contractStatus",
      "outputs": [
        {
          "name": "",
          "type": "uint8"
        }
      ],
      "payable": false,
      "stateMutability": "view",
      "type": "function"
    },
    {
      "inputs": [
        {
          "name": "_employee",
          "type": "address"
        },
        {
          "name": "_totalAmount",
          "type": "uint256"
        },
        {
          "name": "_milestoneCount",
          "type": "uint256"
        }
      ],
      "payable": false,
      "stateMutability": "nonpayable",
      "type": "constructor"
    }
  ],
  "bytecode": "0x608060405234801561001057600080fd5b506040516060806108a5833981018060405281019080805190602001909291908051906020019092919080519060200190929190505050336000806101000a81548173ffffffffffffffffffffffffffffffffffffffff021916908373ffffffffffffffffffffffffffffffffffffffff16021790555082600160006101000a81548173ffffffffffffffffffffffffffffffffffffffff021916908373ffffffffffffffffffffffffffffffffffffffff160217905550816002819055508060038190555080828115156100e157fe5b046004819055506000600560006101000a81548160ff0219169083600381111561010757fe5b02179055505050506107878061011e6000396000f3006080604052600436106100a4576000357c0100000000000000000000000000000000000000000000000000000000900463ffffffff1680630681ca55146100a95780631a39d8ef146100d45780636f9fb98a146100ff578063941cf4151461012a5780639ed89cda14610155578063a06aa1ab1461016c578063a0a1a7d714610183578063a5d737ac146101da578063ae200e79146101e4578063c6ee20d21461023b575b600080fd5b3480156100b557600080fd5b506100be610274565b6040518082815260200191505060405180910390f35b3480156100e057600080fd5b506100e961027a565b6040518082815260200191505060405180910390f35b34801561010b57600080fd5b50610114610280565b6040518082815260200191505060405180910390f35b34801561013657600080fd5b5061013f61029f565b6040518082815260200191505060405180910390f35b34801561016157600080fd5b5061016a6102a5565b005b34801561017857600080fd5b506101816104af565b005b34801561018f57600080fd5b5061019861059a565b604051808273ffffffffffffffffffffffffffffffffffffffff1673ffffffffffffffffffffffffffffffffffffffff16815260200191505060405180910390f35b6101e26105c0565b005b3480156101f057600080fd5b506101f9610723565b604051808273ffffffffffffffffffffffffffffffffffffffff1673ffffffffffffffffffffffffffffffffffffffff16815260200191505060405180910390f35b34801561024757600080fd5b50610250610748565b6040518082600381111561026057fe5b60ff16815260200191505060405180910390f35b60035481565b60025481565b60003073ffffffffffffffffffffffffffffffffffffffff1631905090565b60045481565b6000809054906101000a900473ffffffffffffffffffffffffffffffffffffffff1673ffffffffffffffffffffffffffffffffffffffff163373ffffffffffffffffffffffffffffffffffffffff16141515610369576040517f08c379a000000000000000000000000000000000000000000000000000000000815260040180806020018281038252601b8152602001807f4f6e6c7920656d706c6f7965722063616e2063616c6c2074686973000000000081525060200191505060405180910390fd5b6001600381111561037657fe5b600560009054906101000a900460ff16600381111561039157fe5b141515610406576040517f08c379a00000000000000000000000000000000000000000000000000000000081526004018080602001828103825260168152602001807f436f6e7472616374206973206e6f742066756e6465640000000000000000000081525060200191505060405180910390fd5b600160009054906101000a900473ffffffffffffffffffffffffffffffffffffffff1673ffffffffffffffffffffffffffffffffffffffff166108fc6004549081150290604051600060405180830381858888f19350505050156104ac576003600081548092919060019003919050555060006003541115610487576104ad565b6003600560006101000a81548160ff021916908360038111156104a657fe5b02179055505b5b565b600160009054906101000a900473ffffffffffffffffffffffffffffffffffffffff1673ffffffffffffffffffffffffffffffffffffffff163373ffffffffffffffffffffffffffffffffffffffff16141515610574576040517f08c379a000000000000000000000000000000000000000000000000000000000815260040180806020018281038252601b8152602001807f4f6e6c7920656d706c6f7965652063616e2063616c6c2074686973000000000081525060200191505060405180910390fd5b6002600560006101000a81548160ff0219169083600381111561059357fe5b0217905550565b600160009054906101000a900473ffffffffffffffffffffffffffffffffffffffff1681565b6000809054906101000a900473ffffffffffffffffffffffffffffffffffffffff1673ffffffffffffffffffffffffffffffffffffffff163373ffffffffffffffffffffffffffffffffffffffff16141515610684576040517f08c379a000000000000000000000000000000000000000000000000000000000815260040180806020018281038252601b8152602001807f4f6e6c7920656d706c6f7965722063616e2063616c6c2074686973000000000081525060200191505060405180910390fd5b600254341415156106fd576040517f08c379a00000000000000000000000000000000000000000000000000000000081526004018080602001828103825260108152602001807f496e636f727265637420616d6f756e740000000000000000000000000000000081525060200191505060405180910390fd5b6001600560006101000a81548160ff0219169083600381111561071c57fe5b0217905550565b6000809054906101000a900473ffffffffffffffffffffffffffffffffffffffff1681565b600560009054906101000a900460ff16815600a165627a7a72305820a1185b6c8874371cd31b07d55ef66e5752699715b1b1d434ed86ccd90a4b4d0a0029",
  "linkReferences": {},
  "deployedLinkReferences": {}
}