{
  "_format": "hh-sol-artifact-1",
  "contractName": "Factory",
  "sourceName": "contracts/Factory.sol",
  "abi": [
    {
      "constant": true,
      "inputs": [
        {
          "name": "",
          "type": "address"
        }
      ],
      "name": "isInstantiation",
      "outputs": [
        {
          "name": "",
          "type": "bool"
        }
      ],
      "payable": false,
      "stateMutability": "view",
      "type": "function"
    },
    {
      "constant": true,
      "inputs": [],
      "name": "security",
      "outputs": [
        {
          "name": "",
          "type": "address"
        }
      ],
      "payable": false,
      "stateMutability": "view",
      "type": "function"
    },
    {
      "constant": true,
      "inputs": [
        {
          "name": "",
          "type": "uint256"
        }
      ],
      "name": "allInstantiations",
      "outputs": [
        {
          "name": "",
          "type": "address"
        }
      ],
      "payable": false,
      "stateMutability": "view",
      "type": "function"
    },
    {
      "constant": true,
      "inputs": [
        {
          "name": "index",
          "type": "uint256"
        }
      ],
      "name": "getInstantiation",
      "outputs": [
        {
          "name": "",
          "type": "address"
        }
      ],
      "payable": false,
      "stateMutability": "view",
      "type": "function"
    },
    {
      "constant": true,
      "inputs": [],
      "name": "getAllInstantiations",
      "outputs": [
        {
          "name": "",
          "type": "address[]"
        }
      ],
      "payable": false,
      "stateMutability": "view",
      "type": "function"
    },
    {
      "constant": true,
      "inputs": [],
      "name": "getInstantiationCount",
      "outputs": [
        {
          "name": "",
          "type": "uint256"
        }
      ],
      "payable": false,
      "stateMutability": "view",
      "type": "function"
    },
    {
      "inputs": [
        {
          "name": "_securityContract",
          "type": "address"
        }
      ],
      "payable": false,
      "stateMutability": "nonpayable",
      "type": "constructor"
    },
    {
      "anonymous": false,
      "inputs": [
        {
          "indexed": false,
          "name": "sender",
          "type": "address"
        },
        {
          "indexed": false,
          "name": "instantiation",
          "type": "address"
        }
      ],
      "name": "ContractInstantiation",
      "type": "event"
    }
  ],
  "bytecode": "0x608060405234801561001057600080fd5b5060405160208061052c83398101806040528101908080519060200190929190505050806000806101000a81548173ffffffffffffffffffffffffffffffffffffffff021916908373ffffffffffffffffffffffffffffffffffffffff160217905550506104a9806100836000396000f300608060405260043610610078576000357c0100000000000000000000000000000000000000000000000000000000900463ffffffff1680632f4f33161461007d57806354879918146100d857806361aa5b441461012f578063ac47147a1461019c578063b387406d14610209578063d3e02c0114610275575b600080fd5b34801561008957600080fd5b506100be600480360381019080803573ffffffffffffffffffffffffffffffffffffffff1690602001909291905050506102a0565b604051808215151515815260200191505060405180910390f35b3480156100e457600080fd5b506100ed6102c0565b604051808273ffffffffffffffffffffffffffffffffffffffff1673ffffffffffffffffffffffffffffffffffffffff16815260200191505060405180910390f35b34801561013b57600080fd5b5061015a600480360381019080803590602001909291905050506102e5565b604051808273ffffffffffffffffffffffffffffffffffffffff1673ffffffffffffffffffffffffffffffffffffffff16815260200191505060405180910390f35b3480156101a857600080fd5b506101c760048036038101908080359060200190929190505050610323565b604051808273ffffffffffffffffffffffffffffffffffffffff1673ffffffffffffffffffffffffffffffffffffffff16815260200191505060405180910390f35b34801561021557600080fd5b5061021e6103e2565b6040518080602001828103825283818151815260200191508051906020019060200280838360005b83811015610261578082015181840152602081019050610246565b505050509050019250505060405180910390f35b34801561028157600080fd5b5061028a610470565b6040518082815260200191505060405180910390f35b60016020528060005260406000206000915054906101000a900460ff1681565b6000809054906101000a900473ffffffffffffffffffffffffffffffffffffffff1681565b6002818154811015156102f457fe5b906000526020600020016000915054906101000a900473ffffffffffffffffffffffffffffffffffffffff1681565b6000600280549050821015156103a1576040517f08c379a00000000000000000000000000000000000000000000000000000000081526004018080602001828103825260138152602001807f496e646578206f7574206f6620626f756e64730000000000000000000000000081525060200191505060405180910390fd5b6002828154811015156103b057fe5b9060005260206000200160009054906101000a900473ffffffffffffffffffffffffffffffffffffffff169050919050565b6060600280548060200260200160405190810160405280929190818152602001828054801561046657602002820191906000526020600020905b8160009054906101000a900473ffffffffffffffffffffffffffffffffffffffff1673ffffffffffffffffffffffffffffffffffffffff168152602001906001019080831161041c575b5050505050905090565b60006002805490509050905600a165627a7a72305820a461d21cf7f3b496a0b46924c9320656d7a58d4fdf57cdc2751d08c0f2edf3450029",
  "linkReferences": {},
  "deployedLinkReferences": {}
}