{
  "_format": "hh-sol-artifact-1",
  "contractName": "BiometricStorage",
  "sourceName": "contracts/BiometricStorage.sol",
  "abi": [
    {
      "constant": false,
      "inputs": [
        {
          "name": "_biometricHash",
          "type": "string"
        }
      ],
      "name": "registerUser",
      "outputs": [],
      "payable": false,
      "stateMutability": "nonpayable",
      "type": "function"
    },
    {
      "constant": true,
      "inputs": [
        {
          "name": "",
          "type": "address"
        }
      ],
      "name": "users",
      "outputs": [
        {
          "name": "userAddress",
          "type": "address"
        },
        {
          "name": "biometricHash",
          "type": "string"
        }
      ],
      "payable": false,
      "stateMutability": "view",
      "type": "function"
    },
    {
      "constant": true,
      "inputs": [
        {
          "name": "_biometricHash",
          "type": "string"
        }
      ],
      "name": "verifyUser",
      "outputs": [
        {
          "name": "",
          "type": "bool"
        }
      ],
      "payable": false,
      "stateMutability": "view",
      "type": "function"
    },
    {
      "anonymous": false,
      "inputs": [
        {
          "indexed": true,
          "name": "user",
          "type": "address"
        },
        {
          "indexed": false,
          "name": "biometricHash",
          "type": "string"
        }
      ],
      "name": "UserRegistered",
      "type": "event"
    }
  ],
  "bytecode": "0x608060405234801561001057600080fd5b5061075e806100206000396000f300608060405260043610610057576000357c0100000000000000000000000000000000000000000000000000000000900463ffffffff168063704f1b941461005c578063a87430ba146100c5578063e600c817146101b4575b600080fd5b34801561006857600080fd5b506100c3600480360381019080803590602001908201803590602001908080601f0160208091040260200160405190810160405280939291908181526020018383808284378201915050505050509192919290505050610235565b005b3480156100d157600080fd5b50610106600480360381019080803573ffffffffffffffffffffffffffffffffffffffff1690602001909291905050506103bb565b604051808373ffffffffffffffffffffffffffffffffffffffff1673ffffffffffffffffffffffffffffffffffffffff16815260200180602001828103825283818151815260200191508051906020019080838360005b8381101561017857808201518184015260208101905061015d565b50505050905090810190601f1680156101a55780820380516001836020036101000a031916815260200191505b50935050505060405180910390f35b3480156101c057600080fd5b5061021b600480360381019080803590602001908201803590602001908080601f0160208091040260200160405190810160405280939291908181526020018383808284378201915050505050509192919290505050610497565b604051808215151515815260200191505060405180910390f35b60408051908101604052803373ffffffffffffffffffffffffffffffffffffffff168152602001828152506000803373ffffffffffffffffffffffffffffffffffffffff1673ffffffffffffffffffffffffffffffffffffffff16815260200190815260200160002060008201518160000160006101000a81548173ffffffffffffffffffffffffffffffffffffffff021916908373ffffffffffffffffffffffffffffffffffffffff160217905550602082015181600101908051906020019061030192919061068d565b509050503373ffffffffffffffffffffffffffffffffffffffff167f48cac28ad4dc618e15f4c2dd5e97751182f166de97b25618318b2112aa951a2f826040518080602001828103825283818151815260200191508051906020019080838360005b8381101561037e578082015181840152602081019050610363565b50505050905090810190601f1680156103ab5780820380516001836020036101000a031916815260200191505b509250505060405180910390a250565b60006020528060005260406000206000915090508060000160009054906101000a900473ffffffffffffffffffffffffffffffffffffffff1690806001018054600181600116156101000203166002900480601f01602080910402602001604051908101604052809291908181526020018280546001816001161561010002031660029004801561048d5780601f106104625761010080835404028352916020019161048d565b820191906000526020600020905b81548152906001019060200180831161047057829003601f168201915b5050505050905082565b6000816040516020018082805190602001908083835b6020831015156104d257805182526020820191506020810190506020830392506104ad565b6001836020036101000a0380198251168184511680821785525050505050509050019150506040516020818303038152906040526040518082805190602001908083835b60208310151561053b5780518252602082019150602081019050602083039250610516565b6001836020036101000a0380198251168184511680821785525050505050509050019150506040518091039020600019166000803373ffffffffffffffffffffffffffffffffffffffff1673ffffffffffffffffffffffffffffffffffffffff168152602001908152602001600020600101604051602001808280546001816001161561010002031660029004801561060b5780601f106105e957610100808354040283529182019161060b565b820191906000526020600020905b8154815290600101906020018083116105f7575b50509150506040516020818303038152906040526040518082805190602001908083835b602083101515610654578051825260208201915060208101905060208303925061062f565b6001836020036101000a038019825116818451168082178552505050505050905001915050604051809103902060001916149050919050565b828054600181600116156101000203166002900490600052602060002090601f016020900481019282601f106106ce57805160ff19168380011785556106fc565b828001600101855582156106fc579182015b828111156106fb5782518255916020019190600101906106e0565b5b509050610709919061070d565b5090565b61072f91905b8082111561072b576000816000905550600101610713565b5090565b905600a165627a7a723058203141303c1953d15e93deb9bf49f123ac1eac080eada778842867df131f89ea6e0029",
  "linkReferences": {},
  "deployedLinkReferences": {}
}