{
  "_format": "hh-sol-artifact-1",
  "contractName": "SecurityContract",
  "sourceName": "contracts/SecurityContract.sol",
  "abi": [
    {
      "constant": true,
      "inputs": [
        {
          "name": "",
          "type": "uint256"
        }
      ],
      "name": "owners",
      "outputs": [
        {
          "name": "",
          "type": "address"
        }
      ],
      "payable": false,
      "stateMutability": "view",
      "type": "function"
    },
    {
      "constant": true,
      "inputs": [
        {
          "name": "_address",
          "type": "address"
        }
      ],
      "name": "isOwner",
      "outputs": [
        {
          "name": "",
          "type": "bool"
        }
      ],
      "payable": false,
      "stateMutability": "view",
      "type": "function"
    },
    {
      "constant": false,
      "inputs": [
        {
          "name": "_actionId",
          "type": "uint256"
        }
      ],
      "name": "approveAction",
      "outputs": [],
      "payable": false,
      "stateMutability": "nonpayable",
      "type": "function"
    },
    {
      "constant": true,
      "inputs": [
        {
          "name": "",
          "type": "uint256"
        }
      ],
      "name": "executedActions",
      "outputs": [
        {
          "name": "",
          "type": "bool"
        }
      ],
      "payable": false,
      "stateMutability": "view",
      "type": "function"
    },
    {
      "constant": true,
      "inputs": [],
      "name": "requiredApprovals",
      "outputs": [
        {
          "name": "",
          "type": "uint256"
        }
      ],
      "payable": false,
      "stateMutability": "view",
      "type": "function"
    },
    {
      "constant": true,
      "inputs": [],
      "name": "getOwners",
      "outputs": [
        {
          "name": "",
          "type": "address[]"
        }
      ],
      "payable": false,
      "stateMutability": "view",
      "type": "function"
    },
    {
      "constant": true,
      "inputs": [
        {
          "name": "",
          "type": "uint256"
        },
        {
          "name": "",
          "type": "address"
        }
      ],
      "name": "approvals",
      "outputs": [
        {
          "name": "",
          "type": "bool"
        }
      ],
      "payable": false,
      "stateMutability": "view",
      "type": "function"
    },
    {
      "constant": true,
      "inputs": [
        {
          "name": "_actionId",
          "type": "uint256"
        }
      ],
      "name": "getApprovalCount",
      "outputs": [
        {
          "name": "count",
          "type": "uint256"
        }
      ],
      "payable": false,
      "stateMutability": "view",
      "type": "function"
    },
    {
      "inputs": [
        {
          "name": "_owners",
          "type": "address[]"
        },
        {
          "name": "_requiredApprovals",
          "type": "uint256"
        }
      ],
      "payable": false,
      "stateMutability": "nonpayable",
      "type": "constructor"
    },
    {
      "anonymous": false,
      "inputs": [
        {
          "indexed": false,
          "name": "owner",
          "type": "address"
        },
        {
          "indexed": false,
          "name": "actionId",
          "type": "uint256"
        }
      ],
      "name": "ActionApproved",
      "type": "event"
    },
    {
      "anonymous": false,
      "inputs": [
        {
          "indexed": false,
          "name": "actionId",
          "type": "uint256"
        }
      ],
      "name": "ActionExecuted",
      "type": "event"
    }
  ],
  "bytecode": "0x608060405234801561001057600080fd5b50604051610b45380380610b458339810180604052810190808051820192919060200180519060200190929190505050600082511115156100b9576040517f08c379a000000000000000000000000000000000000000000000000000000000815260040180806020018281038252600f8152602001807f4f776e657273207265717569726564000000000000000000000000000000000081525060200191505060405180910390fd5b6000811180156100ca575081518111155b151561013e576040517f08c379a000000000000000000000000000000000000000000000000000000000815260040180806020018281038252601a8152602001807f496e76616c696420726571756972656420617070726f76616c7300000000000081525060200191505060405180910390fd5b8160009080519060200190610154929190610163565b50806001819055505050610230565b8280548282559060005260206000209081019282156101dc579160200282015b828111156101db5782518260006101000a81548173ffffffffffffffffffffffffffffffffffffffff021916908373ffffffffffffffffffffffffffffffffffffffff16021790555091602001919060010190610183565b5b5090506101e991906101ed565b5090565b61022d91905b8082111561022957600081816101000a81549073ffffffffffffffffffffffffffffffffffffffff0219169055506001016101f3565b5090565b90565b6109068061023f6000396000f30060806040526004361061008e576000357c0100000000000000000000000000000000000000000000000000000000900463ffffffff168063025e7c27146100935780632f54bf6e146101005780633f8a46ee1461015b578063761ec1311461018857806399c1aadc146101cd578063a0e67e2b146101f8578063ab2850da14610264578063ba7e7cab146102c9575b600080fd5b34801561009f57600080fd5b506100be6004803603810190808035906020019092919050505061030a565b604051808273ffffffffffffffffffffffffffffffffffffffff1673ffffffffffffffffffffffffffffffffffffffff16815260200191505060405180910390f35b34801561010c57600080fd5b50610141600480360381019080803573ffffffffffffffffffffffffffffffffffffffff169060200190929190505050610348565b604051808215151515815260200191505060405180910390f35b34801561016757600080fd5b50610186600480360381019080803590602001909291905050506103eb565b005b34801561019457600080fd5b506101b3600480360381019080803590602001909291905050506106c5565b604051808215151515815260200191505060405180910390f35b3480156101d957600080fd5b506101e26106e5565b6040518082815260200191505060405180910390f35b34801561020457600080fd5b5061020d6106eb565b6040518080602001828103825283818151815260200191508051906020019060200280838360005b83811015610250578082015181840152602081019050610235565b505050509050019250505060405180910390f35b34801561027057600080fd5b506102af60048036038101908080359060200190929190803573ffffffffffffffffffffffffffffffffffffffff169060200190929190505050610779565b604051808215151515815260200191505060405180910390f35b3480156102d557600080fd5b506102f4600480360381019080803590602001909291905050506107a8565b6040518082815260200191505060405180910390f35b60008181548110151561031957fe5b906000526020600020016000915054906101000a900473ffffffffffffffffffffffffffffffffffffffff1681565b600080600090505b6000805490508110156103e0578273ffffffffffffffffffffffffffffffffffffffff1660008281548110151561038357fe5b9060005260206000200160009054906101000a900473ffffffffffffffffffffffffffffffffffffffff1673ffffffffffffffffffffffffffffffffffffffff1614156103d357600191506103e5565b8080600101915050610350565b600091505b50919050565b6103f433610348565b1515610468576040517f08c379a000000000000000000000000000000000000000000000000000000000815260040180806020018281038252600c8152602001807f4e6f7420616e206f776e6572000000000000000000000000000000000000000081525060200191505060405180910390fd5b6003600082815260200190815260200160002060009054906101000a900460ff161515156104fe576040517f08c379a00000000000000000000000000000000000000000000000000000000081526004018080602001828103825260178152602001807f416374696f6e20616c726561647920657865637574656400000000000000000081525060200191505060405180910390fd5b6002600082815260200190815260200160002060003373ffffffffffffffffffffffffffffffffffffffff1673ffffffffffffffffffffffffffffffffffffffff16815260200190815260200160002060009054906101000a900460ff161515156105d1576040517f08c379a00000000000000000000000000000000000000000000000000000000081526004018080602001828103825260108152602001807f416c726561647920617070726f7665640000000000000000000000000000000081525060200191505060405180910390fd5b60016002600083815260200190815260200160002060003373ffffffffffffffffffffffffffffffffffffffff1673ffffffffffffffffffffffffffffffffffffffff16815260200190815260200160002060006101000a81548160ff0219169083151502179055507fa216316a2a12f63f362828929c4b0b2b771f1eb382c6d911ff2ac3c2c702012c3382604051808373ffffffffffffffffffffffffffffffffffffffff1673ffffffffffffffffffffffffffffffffffffffff1681526020018281526020019250505060405180910390a16001546106b1826107a8565b1015156106c2576106c181610874565b5b50565b60036020528060005260406000206000915054906101000a900460ff1681565b60015481565b6060600080548060200260200160405190810160405280929190818152602001828054801561076f57602002820191906000526020600020905b8160009054906101000a900473ffffffffffffffffffffffffffffffffffffffff1673ffffffffffffffffffffffffffffffffffffffff1681526020019060010190808311610725575b5050505050905090565b60026020528160005260406000206020528060005260406000206000915091509054906101000a900460ff1681565b600080600090505b60008054905081101561086e5760026000848152602001908152602001600020600080838154811015156107e057fe5b9060005260206000200160009054906101000a900473ffffffffffffffffffffffffffffffffffffffff1673ffffffffffffffffffffffffffffffffffffffff1673ffffffffffffffffffffffffffffffffffffffff16815260200190815260200160002060009054906101000a900460ff16156108615781806001019250505b80806001019150506107b0565b50919050565b60016003600083815260200190815260200160002060006101000a81548160ff0219169083151502179055507f7cd79380f59dcb9a2e87db5e49009e2cb7ff8a3175bf8db0137c71bd7abe7143816040518082815260200191505060405180910390a1505600a165627a7a723058205154b64baacac2b41c1dc612d083a8b1b9735bf687aee1c06e415e78b85f08f20029",
  "linkReferences": {},
  "deployedLinkReferences": {}
}